:020000040800F2
:1000000000280020A10C0008450C00084B0C00083B
:10001000510C0008570C00085D0C0008000000009F
:10002000000000000000000000000000630C000859
:100030006F0C0008000000007B0C0008870C000813
:10004000E90C0008E90C0008E90C0008E90C0008BC
:10005000E90C0008E90C0008E90C0008E90C0008AC
:10006000E90C0008E90C0008E90C0008E90C00089C
:10007000E90C0008E90C0008E90C0008E90C00088C
:10008000E90C0008E90C0008E90C0008E90C00087C
:10009000E90C0008E90C0008E90C0008E90C00086C
:1000A000E90C0008E90C0008E90C0008E90C00085C
:1000B000E90C0008E90C000800000000E90C000849
:1000C000E90C00080000000000000000E90C000836
:1000D00000000000E90C0008E90C00080000000026
:1000E000E90C0008E90C0008E90C00080000000019
:1000F0000000000000000000000000000000000000
:0C01000000000000000000005FF808F1A3
:10010C0010B5054C237833B9044B13B10448AFF345
:10011C0000800123237010BD24000020000000008B
:10012C000C1B000808B5034B1BB103490348AFF384
:10013C00008008BD00000000280000200C1B0008F7
:10014C0080B582B000AF786039607B68032B00F219
:10015C00FD8001A252F823F0750100086902000825
:10016C00F5010008DB0200083B68002B11D10122CD
:10017C004FF480617C4801F097F8002201217A4805
:10018C0001F092F800224FF40061774801F08CF8EE
:10019C00DEE03B68012B11D100224FF480617248E4
:1001AC0001F082F801224FF400616F4801F07CF8F5
:1001BC00002201216C4801F077F8C9E03B68022B62
:1001CC0040F0C68000224FF48061674801F06CF863
:1001DC0000224FF40061644801F066F8012201210D
:1001EC00614801F061F8B3E03B68002B0FD10122AC
:1001FC0040215D4801F058F8002210215A4801F0C6
:10020C0053F800222021584801F04EF8A2E03B6838
:10021C00012B0FD100221021534801F045F8002288
:10022C004021514801F040F8012220214E4801F0B4
:10023C003BF88FE03B68022B40F08C8001221021B0
:10024C00494801F031F800224021474801F02CF8D0
:10025C0000222021444801F027F87BE03B68002B6A
:10026C000FD101220221404801F01EF80022042186
:10027C003D4801F019F8002208213B4801F014F820
:10028C006AE03B68012B0FD100220221364801F0B5
:10029C000BF801220421344801F006F80022082151
:1002AC00314801F001F857E03B68022B54D1002291
:1002BC0002212D4800F0F8FF002204212A4800F00A
:1002CC00F3FF01220821284800F0EEFF44E03B68D0
:1002DC00002B11D101224FF40071234800F0E4FFF0
:1002EC0000224FF48071204800F0DEFF00228021B4
:1002FC001D4800F0D9FF31E03B68012B11D10022E1
:10030C004FF40071184800F0CFFF01224FF48071B8
:10031C00154800F0C9FF00228021134800F0C4FFEB
:10032C001CE03B68022B19D100224FF400710E48DF
:10033C0000F0BAFF00224FF480710B4800F0B4FFBC
:10034C0001228021084800F0AFFF07E000BF06E063
:10035C0000BF04E000BF02E000BF00E000BF00BF30
:10036C000837BD4680BD00BF000C014080B582B08F
:10037C0000AF786001228021B64800F095FF012281
:10038C004FF48071B34800F08FFF01224FF40071DD
:10039C00B04800F089FF01224FF48061AD4800F0B5
:1003AC0083FF01224FF40061AA4800F07DFF012277
:1003BC004FF48051A74800F077FF01224FF4004121
:1003CC00A44800F071FF7B68092B00F23F8101A269
:1003DC0052F823F009040008510400086B040008CB
:1003EC00A7040008E30400081505000851050008DF
:1003FC0099050008BD05000811060008002280219F
:10040C00944800F051FF00224FF48071914800F0A5
:10041C004BFF00224FF400718E4800F045FF002284
:10042C004FF480618B4800F03FFF00224FF40061D5
:10043C00884800F039FF00224FF48051854800F0C5
:10044C0033FF03E100224FF48071824800F02CFF4F
:10045C0000224FF400717F4800F026FFF6E00022E6
:10046C0080217C4800F020FF00224FF480717948F5
:10047C0000F01AFF00224FF48061764800F014FF60
:10048C0000224FF40061734800F00EFF00224FF47D
:10049C000041704800F008FFD8E0002280216D4830
:1004AC0000F002FF00224FF480716A4800F0FCFE5D
:1004BC0000224FF40071674800F0F6FE00224FF462
:1004CC008061644800F0F0FE00224FF40041614866
:1004DC0000F0EAFEBAE000224FF480715D4800F0B3
:1004EC00E3FE00224FF400715A4800F0DDFE0022BA
:1004FC004FF48051574800F0D7FE00224FF40041D2
:10050C00544800F0D1FEA1E000228021514800F0B7
:10051C00CBFE00224FF400714E4800F0C5FE0022C5
:10052C004FF480614B4800F0BFFE00224FF4805125
:10053C00484800F0B9FE00224FF40041454800F055
:10054C00B3FE83E000228021424800F0ADFE002281
:10055C004FF400713F4800F0A7FE00224FF4806179
:10056C003C4800F0A1FE00224FF40061394800F035
:10057C009BFE00224FF48051364800F095FE00227D
:10058C004FF40041334800F08FFE5FE000228021E1
:10059C00304800F089FE00224FF480712D4800F0A5
:1005AC0083FE00224FF400712A4800F07DFE4DE0DE
:1005BC0000228021274800F077FE00224FF4807142
:1005CC00244800F071FE00224FF40071214800F025
:1005DC006BFE00224FF480611E4800F065FE002285
:1005EC004FF400611B4800F05FFE00224FF4805175
:1005FC00184800F059FE00224FF40041154800F055
:10060C0053FE23E000228021124800F04DFE002210
:10061C004FF480710F4800F047FE00224FF4007138
:10062C000C4800F041FE00224FF48061094800F0B4
:10063C003BFE00224FF48051064800F035FE0022AC
:10064C004FF40041034800F02FFE00BF00BF0837F5
:10065C00BD4680BD0008014080B582B000AF786017
:10066C0001220221A94800F01FFE01220421A74803
:10067C0000F01AFE01220821A44800F015FE012208
:10068C001021A24800F010FE01224FF48051A04826
:10069C0000F00AFE01224FF400519D4800F004FEC8
:1006AC0001224FF480419A4800F0FEFD7B68092B33
:1006BC0000F2288101A252F823F000BFF1060008D5
:1006CC00330700084907000881070008B70700082E
:1006DC00E50700081D0800086108000881080008EB
:1006EC00CF08000800220221884800F0DDFD00221E
:1006FC000421864800F0D8FD00220821834800F030
:10070C00D3FD00221021814800F0CEFD00224FF4D1
:10071C0080517F4800F0C8FD00224FF400517C4806
:10072C0000F0C2FDEEE000220421784800F0BCFD90
:10073C0000220821754800F0B7FDE3E000220221F9
:10074C00724800F0B1FD00220421704800F0ACFDAD
:10075C00002210216D4800F0A7FD00224FF48051BB
:10076C006B4800F0A1FD00224FF48041684800F076
:10077C009BFDC7E000220221644800F095FD002299
:10078C000421624800F090FD002208215F4800F02F
:10079C008BFD002210215D4800F086FD00224FF4F5
:1007AC0080415B4800F080FDACE0002204215748FA
:1007BC0000F07AFD00220821544800F075FD00225B
:1007CC004FF40051524800F06FFD00224FF480416D
:1007DC004F4800F069FD95E0002202214B4800F0E3
:1007EC0063FD00220821494800F05EFD0022102123
:1007FC00464800F059FD00224FF40051444800F0E7
:10080C0053FD00224FF48041414800F04DFD79E04A
:10081C00002202213D4800F047FD002208213B4800
:10082C0000F042FD00221021384800F03DFD00226E
:10083C004FF48051364800F037FD00224FF4005140
:10084C00334800F031FD00224FF48041304800F075
:10085C002BFD57E0002202212C4800F025FD002240
:10086C0004212A4800F020FD00220821274800F02E
:10087C001BFD47E000220221244800F015FD002258
:10088C000421224800F010FD002208211F4800F02E
:10089C000BFD002210211D4800F006FD00224FF434
:1008AC0080511B4800F000FD00224FF40051184805
:1008BC0000F0FAFC00224FF48041154800F0F4FCE3
:1008CC0020E000220221114800F0EEFC002204215D
:1008DC000E4800F0E9FC002208210C4800F0E4FC72
:1008EC0000221021094800F0DFFC00224FF40051D7
:1008FC00074800F0D9FC00224FF48041044800F076
:10090C00D3FC00BF00BF0837BD4680BD00080140C6
:10091C00000C014080B500AF294B1B68002B12DD89
:10092C0000210020FFF70CFC00210220FFF708FC3F
:10093C00234B1B681846FFF719FD214B1B68013B25
:10094C001F4A13603AE01F4B1B68002B12DD02217B
:10095C000020FFF7F5FB02210220FFF7F1FB194BFA
:10096C001B681846FFF702FD164B1B68013B154A26
:10097C00136023E0144B1B68002B12DD01210020B7
:10098C00FFF7DEFB01210220FFF7DAFB0E4B1B68A1
:10099C001846FFF7EBFC0C4B1B68013B0A4A136033
:1009AC000CE0094B1B68002B08D1054B05221A6083
:1009BC00044B03221A60044B02221A6080BD00BF54
:1009CC0000000020080000200400002080B500AFCB
:1009DC00294B1B68002B12DD02210120FFF7B0FB15
:1009EC0002210320FFF7ACFB234B1B681846FFF7D3
:1009FC0033FE214B1B68013B1F4A13603AE01F4B2F
:100A0C001B68002B12DD01210120FFF799FB01214E
:100A1C000320FFF795FB194B1B681846FFF71CFECC
:100A2C00164B1B68013B154A136023E0144B1B68E3
:100A3C00002B12DD00210120FFF782FB0021032097
:100A4C00FFF77EFB0E4B1B681846FFF705FE0C4BA1
:100A5C001B68013B0A4A13600CE0084B1B68002B17
:100A6C0008D1074B05221A60034B03221A60034B73
:100A7C0002221A6080BD00BF14000020100000206C
:100A8C000C00002080B500AF00F02AF900F00BF844
:100A9C0000F044F8FFF73EFFFFF798FF4FF47A7031
:100AAC0000F080F9F6E780B590B000AF07F11803BD
:100ABC0028220021184601F01BF83B1D00221A6069
:100ACC005A609A60DA601A610223BB610123BB622F
:100ADC001023FB6200237B6307F11803184600F018
:100AEC00FBFB0346002B01D000F06EF80F237B605C
:100AFC000023BB600023FB6000233B6100237B6170
:100B0C003B1D0021184600F067FE0346002B01D068
:100B1C0000F05AF800BF4037BD4680BD80B586B0A6
:100B2C0000AF07F1080300221A605A609A60DA607D
:100B3C00224B9B69214A43F0040393611F4B9B6931
:100B4C0003F004037B607B681C4B9B691B4A43F0DE
:100B5C0008039361194B9B6903F008033B603B68E6
:100B6C00002249F6FE71164800F09EFB002247F663
:100B7C00FF71144800F098FB49F6FE73BB6001232B
:100B8C00FB6000233B6102237B6107F108031946DC
:100B9C000B4800F00FFA47F6FF73BB600123FB60B4
:100BAC0000233B6102237B6107F1080319460548CA
:100BBC0000F000FA00BF1837BD4680BD001002409F
:100BCC0000080140000C014080B400AF72B600BFB9
:100BDC00FEE7000080B485B000AF154B9B69144A4A
:100BEC0043F001039361124B9B6903F00103BB605B
:100BFC00BB680F4BDB690E4A43F08053D3610C4B3F
:100C0C00DB6903F080537B607B680A4B5B68FB609D
:100C1C00FB6823F0E063FB60FB6843F00073FB6050
:100C2C00044AFB68536000BF1437BD4680BC704754
:100C3C00001002400000014080B400AFFEE780B419
:100C4C0000AFFEE780B400AFFEE780B400AFFEE774
:100C5C0080B400AFFEE780B400AF00BFBD4680BCDF
:100C6C00704780B400AF00BFBD4680BC704780B4F5
:100C7C0000AF00BFBD4680BC704780B500AF00F030
:100C8C0075F800BF80BD80B400AF00BFBD4680BC0E
:100C9C00704700000C480D490D4A002302E0D4585F
:100CAC00C4500433C4188C42F9D30A4A0A4C0023AA
:100CBC0001E013600432A242FBD3FFF7E4FF00F023
:100CCC00F3FEFFF7DFFE7047000000202400002039
:100CDC004C1B00082400002044000020FEE700000C
:100CEC0080B500AF084B1B68074A43F01003136034
:100CFC00032000F02BF90F2000F008F8FFF76AFF33
:100D0C000023184680BD00BF0020024080B582B091
:100D1C0000AF7860124B1A68124B1B7819464FF4CF
:100D2C007A73B3FBF1F3B2FBF3F3184600F035F929
:100D3C000346002B01D001230EE07B680F2B0AD851
:100D4C00002279684FF0FF3000F00BF9064A7B68FF
:100D5C001360002300E0012318460837BD4680BD10
:100D6C0018000020200000201C00002080B400AFE0
:100D7C00054B1B781A46054B1B681344034A13603A
:100D8C0000BFBD4680BC7047200000204000002002
:100D9C0080B400AF024B1B681846BD4680BC704740
:100DAC004000002080B584B000AF7860FFF7F0FF02
:100DBC00B8607B68FB60FB68B3F1FF3F05D00A4B62
:100DCC001B781A46FB681344FB6000BFFFF7E0FF7B
:100DDC000246BB68D31AFA689A42F7D800BF00BF24
:100DEC001037BD4680BD00BF2000002080B485B008
:100DFC0000AF78607B6803F00703FB600C4BDB688B
:100E0C00BB60BA684FF6FF031340BB60FB681A0265
:100E1C00BB68134343F0BF6343F40033BB60044A25
:100E2C00BB68D36000BF1437BD4680BC704700BFA1
:100E3C0000ED00E080B400AF044BDB681B0A03F04C
:100E4C0007031846BD4680BC704700BF00ED00E0AC
:100E5C0080B483B000AF03463960FB7197F907305B
:100E6C00002B0ADB3B68DAB20C4997F90730120108
:100E7C00D2B20B4483F800230AE03B68DAB208498B
:100E8C00FB7903F00F03043B1201D2B20B441A7628
:100E9C0000BF0C37BD4680BC704700BF00E100E0CE
:100EAC0000ED00E080B489B000AFF860B9607A6002
:100EBC00FB6803F00703FB61FB69C3F10703042B19
:100ECC0028BF0423BB61FB690433062B02D9FB69E1
:100EDC00033B00E000237B614FF0FF32BB6902FA59
:100EEC0003F3DA43BB681A407B699A404FF0FF3139
:100EFC007B6901FA03F3D9437B680B401343184613
:100F0C002437BD4680BC704780B582B000AF786096
:100F1C007B68013BB3F1807F01D301230FE00A4AC8
:100F2C007B68013B53600F214FF0FF30FFF790FFC0
:100F3C00054B00229A60044B07221A6000231846C6
:100F4C000837BD4680BD00BF10E000E080B582B020
:100F5C0000AF78607868FFF749FF00BF0837BD46DF
:100F6C0080BD80B586B000AF0346B9607A60FB7374
:100F7C0000237B61FFF75EFF78617A68B968786956
:100F8C00FFF790FF024697F90F3011461846FFF70E
:100F9C005FFF00BF1837BD4680BD80B582B000AF83
:100FAC0078607868FFF7B0FF034618460837BD46EF
:100FBC0080BD000080B48BB000AF78603960002336
:100FCC007B6200233B6248E101227B6A02FA03F355
:100FDC00FB613B681B68FA691340BB61BA69FB692A
:100FEC009A4240F037813B685B68A34A93425ED0DB
:100FFC00A14A934275D8A14A934258D09F4A934232
:10100C006FD89F4A934252D09D4A934269D89D4AC9
:10101C0093424CD09B4A934263D89B4A934246D00E
:10102C00994A93425DD8122B2AD8122B59D801A277
:10103C0052F823F0BB10000895100008A710000808
:10104C00E9100008EF100008EF100008EF1000087E
:10105C00EF100008EF100008EF100008EF10000868
:10106C00EF100008EF100008EF100008EF10000858
:10107C00EF100008EF1000089D100008B1100008D8
:10108C00824A934213D02CE03B68DB683B6229E038
:10109C003B68DB6804333B6224E03B68DB68083365
:1010AC003B621FE03B68DB680C333B621AE03B6839
:1010BC009B68002B02D104233B6213E03B689B68C6
:1010CC00012B05D108233B627B68FA691A6109E0A0
:1010DC0008233B627B68FA695A6103E000233B6298
:1010EC0000E000BFBB69FF2B01D87B6801E07B6887
:1010FC0004337B61BB69FF2B02D87B6A9B0002E047
:10110C007B6A083B9B003B617B691A680F213B693A
:10111C0001FA03F3DB431A40396A3B6901FA03F322
:10112C001A437B691A603B685B6803F08053002BA1
:10113C0000F09080564B9B69554A43F00103936134
:10114C00534B9B6903F00103BB60BB68514A7B6A3C
:10115C009B08023352F82330FB607B6A03F00303D5
:10116C009B000F2202FA03F3DB43FA681340FB6087
:10117C007B68494A93420DD07B68484A934207D01A
:10118C007B68474A934201D1022304E0032302E027
:10119C00012300E000237A6A02F0030292009340DC
:1011AC00FA681343FB603B497B6A9B080233FA687D
:1011BC0041F823203B685B6803F48033002B06D096
:1011CC00384B1A683749BB6913430B6006E0354B43
:1011DC001A68BB69DB43334913400B603B685B689F
:1011EC0003F40033002B06D02E4B5A682D49BB69F3
:1011FC0013434B6006E02B4B5A68BB69DB43294910
:10120C0013404B603B685B6803F48013002B06D0E3
:10121C00244B9A682349BB6913438B6006E0214B2E
:10122C009A68BB69DB431F4913408B603B685B6862
:10123C0003F40013002B06D01A4BDA681949BB696A
:10124C001343CB6006E0174BDA68BB69DB431549E7
:10125C001340CB607B6A01337B623B681A687B6A04
:10126C0022FA03F3002B7FF4AFAE00BF00BF2C3784
:10127C00BD4680BC704700BF00003210000031102A
:10128C0000002210000021100000121000001110AC
:10129C00001002400000014000080140000C014019
:1012AC00001001400004014080B483B000AF7860AE
:1012BC000B467B8013467B707B78002B03D07A889F
:1012CC007B681A6103E07B881A047B681A6100BF93
:1012DC000C37BD4680BC704780B586B000AF7860D7
:1012EC007B68002B01D101236CE27B681B6803F047
:1012FC000103002B00F08780924B5B6803F00C031A
:10130C00042B0CD08F4B5B6803F00C03082B12D111
:10131C008C4B5B6803F48033B3F5803F0BD1894B66
:10132C001B6803F40033002B6CD07B685B68002BCC
:10133C0068D1012346E27B685B68B3F5803F06D138
:10134C00804B1B687F4A43F4803313602EE07B682C
:10135C005B68002B0CD17B4B1B687A4A23F48033DF
:10136C001360784B1B68774A23F4802313601DE0CD
:10137C007B685B68B3F5A02F0CD1724B1B68714A6C
:10138C0043F4802313606F4B1B686E4A43F4803325
:10139C0013600BE06B4B1B686A4A23F480331360B9
:1013AC00684B1B68674A23F4802313607B685B6877
:1013BC00002B13D0FFF7ECFC386108E0FFF7E8FCDA
:1013CC0002463B69D31A642B01D90323FAE15D4B26
:1013DC001B6803F40033002BF0D014E0FFF7D8FCAB
:1013EC00386108E0FFF7D4FC02463B69D31A642B42
:1013FC0001D90323E6E1534B1B6803F40033002BA4
:10140C00F0D100E000BF7B681B6803F00203002BE7
:10141C0063D04C4B5B6803F00C03002B0BD0494B97
:10142C005B6803F00C03082B1CD1464B5B6803F480
:10143C008033002B16D1434B1B6803F00203002BA7
:10144C0005D07B681B69012B01D00123BAE13D4B10
:10145C001B6823F0F8027B685B69DB003949134396
:10146C000B603AE07B681B69002B20D0364B0122C5
:10147C001A60FFF78DFC386108E0FFF789FC024623
:10148C003B69D31A022B01D903239BE12D4B1B681B
:10149C0003F00203002BF0D02A4B1B6823F0F80258
:1014AC007B685B69DB00274913430B6015E0264B17
:1014BC0000221A60FFF76CFC386108E0FFF768FC4B
:1014CC0002463B69D31A022B01D903237AE11D4B47
:1014DC001B6803F00203002BF0D17B681B6803F040
:1014EC000803002B3AD07B689B69002B19D0174B53
:1014FC0001221A60FFF74CFC386108E0FFF748FC4A
:10150C0002463B69D31A022B01D903235AE10D4B36
:10151C005B6A03F00203002BF0D0012000F0A6FA66
:10152C001CE00A4B00221A60FFF732FC38610FE016
:10153C00FFF72EFC02463B69D31A022B08D9032372
:10154C0040E100BF001002400000424280044242D1
:10155C009E4B5B6A03F00203002BE9D17B681B688E
:10156C0003F00403002B00F0A6800023FB75974BBF
:10157C00DB6903F08053002B0DD1944BDB69934A4C
:10158C0043F08053D361914BDB6903F08053BB6014
:10159C00BB680123FB758E4B1B6803F48073002B17
:1015AC0018D18B4B1B688A4A43F480731360FFF786
:1015BC00EFFB386108E0FFF7EBFB02463B69D31AFF
:1015CC00642B01D90323FDE0814B1B6803F480736A
:1015DC00002BF0D07B68DB68012B06D17B4B1B6AA0
:1015EC007A4A43F0010313622DE07B68DB68002B21
:1015FC000CD1764B1B6A754A23F001031362734BB3
:10160C001B6A724A23F0040313621CE07B68DB68DC
:10161C00052B0CD16D4B1B6A6C4A43F0040313620F
:10162C006A4B1B6A694A43F0010313620BE0674B78
:10163C001B6A664A23F001031362644B1B6A634AFC
:10164C0023F0040313627B68DB68002B15D0FFF7D3
:10165C009FFB38610AE0FFF79BFB02463B69D31AFC
:10166C0041F28832934201D90323ABE0574B1B6AFA
:10167C0003F00203002BEED014E0FFF789FB386176
:10168C000AE0FFF785FB02463B69D31A41F2883228
:10169C00934201D9032395E04C4B1B6A03F00203E0
:1016AC00002BEED1FB7D012B05D1484BDB69474A62
:1016BC0023F08053D3617B68DB69002B00F08180C1
:1016CC00424B5B6803F00C03082B61D07B68DB6931
:1016DC00022B46D13F4B00221A60FFF759FB3861B1
:1016EC0008E0FFF755FB02463B69D31A022B01D9E0
:1016FC00032367E0354B1B6803F00073002BF0D11C
:10170C007B681B6AB3F5803F08D1304B5B6823F4D0
:10171C0000327B689B682D4913434B602B4B5B68F5
:10172C0023F474127B68196A7B685B6A0B43274944
:10173C0013434B60274B01221A60FFF729FB3861DA
:10174C0008E0FFF725FB02463B69D31A022B01D9AF
:10175C00032337E01D4B1B6803F00073002BF0D004
:10176C002FE01C4B00221A60FFF712FB386108E0D7
:10177C00FFF70EFB02463B69D31A022B01D9032358
:10178C0020E0124B1B6803F00073002BF0D118E023
:10179C007B68DB69012B01D1012313E00B4B5B68E8
:1017AC00FB60FB6803F480327B681B6A9A4206D1AB
:1017BC00FB6803F470127B685B6A9A4201D00123C8
:1017CC0000E0002318461837BD4680BD00100240CB
:1017DC00007000406000424280B584B000AF786079
:1017EC0039607B68002B01D10123D0E06A4B1B6868
:1017FC0003F007033A689A4210D9674B1B6823F031
:10180C00070265493B6813430B60634B1B6803F08D
:10181C0007033A689A4201D00123B8E07B681B6841
:10182C0003F00203002B20D07B681B6803F0040339
:10183C00002B05D0594B5B68584A43F4E063536066
:10184C007B681B6803F00803002B05D0534B5B68C7
:10185C00524A43F460535360504B5B6823F0F002E0
:10186C007B689B684D4913434B607B681B6803F096
:10187C000103002B40D07B685B68012B07D1474BE1
:10188C001B6803F40033002B15D101237FE07B6828
:10189C005B68022B07D1414B1B6803F00073002BD4
:1018AC0009D1012373E03D4B1B6803F00203002BAD
:1018BC0001D101236BE0394B5B6823F003027B6899
:1018CC005B68364913434B60FFF762FAF8600AE035
:1018DC00FFF75EFA0246FB68D31A41F28832934254
:1018EC0001D9032353E02D4B5B6803F00C027B689A
:1018FC005B689B009A42EBD1274B1B6803F00703F4
:10190C003A689A4210D2244B1B6823F007022249F2
:10191C003B6813430B60204B1B6803F007033A68CA
:10192C009A4201D0012332E07B681B6803F0040368
:10193C00002B08D0194B5B6823F4E0627B68DB68F2
:10194C00164913434B607B681B6803F00803002B9C
:10195C0009D0124B5B6823F460527B681B69DB0077
:10196C000E4913434B6000F021F802460B4B5B68A9
:10197C001B0903F00F030A49CB5C22FA03F3094A53
:10198C001360094B1B681846FFF7C0F90023184673
:10199C001037BD4680BD00BF002002400010024041
:1019AC00341B0008180000201C00002090B48AB0E2
:1019BC0000AF2A4B3C1D0FCB84E80F0040F20123F3
:1019CC003B800023FB610023BB6100237B6200236F
:1019DC007B6100233B62224B5B68FB61FB6903F07C
:1019EC000C03042B02D0082B03D02DE01D4B3B62C3
:1019FC002DE0FB699B0C03F00F0307F12802134445
:101A0C0013F8243C7B61FB6903F48033002B13D067
:101A1C00134B5B685B0C03F0010307F128021344C2
:101A2C0013F8283CBB617B690E4A02FB03F2BB69CD
:101A3C00B2FBF3F37B6204E07B690B4A02FB03F31A
:101A4C007B627B6A3B6202E0064B3B6200BF3B6AF7
:101A5C0018462837BD4690BC704700BF241B0008B1
:101A6C000010024000127A0000093D0080B485B0DD
:101A7C0000AF78600A4B1B680A4AA2FB03235B0A7F
:101A8C007A6802FB03F3FB6000BFFB685A1EFA6026
:101A9C00002BF9D100BF00BF1437BD4680BC704786
:101AAC0018000020D34D621070B500260C4D0D4C63
:101ABC00641BA410A64209D100F022F800260A4D9E
:101ACC000A4C641BA410A64205D170BD55F8043B0A
:101ADC0098470136EEE755F8043B98470136F2E794
:101AEC00441B0008441B0008441B0008481B00084A
:101AFC0003460244934200D1704703F8011BF9E7F7
:101B0C00F8B500BFF8BC08BC9E467047F8B500BFDE
:081B1C00F8BC08BC9E467047AE
:101B240002030405060708090A0B0C0D0E0F10101A
:101B34000000000000000000010203040607080979
:041B44003101000863
:041B48000D01000883
:101B4C00050000000200000003000000050000007A
:101B5C0002000000030000000024F400100000004C
:041B6C000100000074
:0400000508000CA142
:00000001FF
